:1000000000308A00C82800000A108A100A118207EE
:10001000313432343334343435343634373438349C
:1000200039342A34303423348A110A12EF28A601D5
:10003000A10A2108213C031898282408031927281D
:10004000013A03192D28033A031933283828DE30E2
:1000500083168600831286003828BE3083168600F9
:100060008312860038287E3083168600831286002D
:10007000221C442806081E391E3C031D432822105A
:100080002308A600A301972806081E391E3C031961
:10009000922806080239031D4F28A7016328060885
:1000A0000439031D56280130A700632806080839C3
:1000B000031D5D280230A700632806081039031DC0
:1000C00063280330A7002708A8000330A900F70120
:1000D000F801280803102918F707F70CF80CA918DD
:1000E000F707F70CF80C2919F707F70CF80CA91902
:1000F000F707F70CF80C291AF707F70CF80CA91AF0
:10010000F707F70CF80C291BF707F70CF80CA91BDD
:10011000F707F70CF80C240878070420F800A30070
:1001200022149728A40A2408033C0319A401A1015E
:10013000FE308316860083122608F8008A110A1200
:10014000F32894138C11260893000230941BAF28D7
:100150008C1DA82800308316111B01308312F80073
:10016000080026308400831300080319C5280130D5
:10017000F800F701F70BBA28F80BB9284A30F70056
:10018000F70BC028C328800BB7288A110A120B2945
:1001900003081F398300FF30A000A0152008831634
:1001A00087008312201620088316870009309300E9
:1001B0002830831294008316941714131F149F146D
:1001C0001F159F1183138312A1012210A301A40103
:1001D0008316880183128801A501870114288316DC
:1001E0008113831217287808A500A50803190B2985
:1001F000831611141118FA28A0308312A600A1202A
:100200002508A600A12083161115111905296430AF
:0A0210008312A600B128F228630053
:02400E00713F00
:00000001FF
;PIC16F877
;CRC=8484  CREATED="24-jun.-21 19:00"
